{
  "contractName": "RockPaperScissors",
  "abi": [
    {
      "constant": true,
      "inputs": [
        {
          "name": "",
          "type": "address"
        }
      ],
      "name": "balances",
      "outputs": [
        {
          "name": "",
          "type": "uint256"
        }
      ],
      "payable": false,
      "stateMutability": "view",
      "type": "function"
    },
    {
      "constant": true,
      "inputs": [
        {
          "name": "",
          "type": "bytes32"
        }
      ],
      "name": "playersInfo",
      "outputs": [
        {
          "name": "player1",
          "type": "address"
        },
        {
          "name": "player2",
          "type": "address"
        },
        {
          "name": "secret_mov1",
          "type": "bytes32"
        },
        {
          "name": "mov2",
          "type": "uint8"
        },
        {
          "name": "gameStatus",
          "type": "bool"
        },
        {
          "name": "whoWon",
          "type": "string"
        }
      ],
      "payable": false,
      "stateMutability": "view",
      "type": "function"
    },
    {
      "constant": true,
      "inputs": [],
      "name": "owner",
      "outputs": [
        {
          "name": "",
          "type": "address"
        }
      ],
      "payable": false,
      "stateMutability": "view",
      "type": "function"
    },
    {
      "constant": true,
      "inputs": [],
      "name": "amountToBet",
      "outputs": [
        {
          "name": "",
          "type": "uint256"
        }
      ],
      "payable": false,
      "stateMutability": "view",
      "type": "function"
    },
    {
      "inputs": [],
      "payable": true,
      "stateMutability": "payable",
      "type": "constructor"
    },
    {
      "anonymous": false,
      "inputs": [
        {
          "indexed": false,
          "name": "to",
          "type": "address"
        },
        {
          "indexed": false,
          "name": "amount",
          "type": "uint256"
        }
      ],
      "name": "retirado",
      "type": "event"
    },
    {
      "constant": false,
      "inputs": [
        {
          "name": "secret",
          "type": "bytes32"
        },
        {
          "name": "_mov1",
          "type": "uint8"
        },
        {
          "name": "player2",
          "type": "address"
        },
        {
          "name": "onlyAlice",
          "type": "bytes32"
        },
        {
          "name": "amount",
          "type": "uint256"
        }
      ],
      "name": "startGame",
      "outputs": [],
      "payable": true,
      "stateMutability": "payable",
      "type": "function"
    },
    {
      "constant": false,
      "inputs": [
        {
          "name": "secret",
          "type": "bytes32"
        },
        {
          "name": "_mov2",
          "type": "uint8"
        }
      ],
      "name": "answerPlayer2",
      "outputs": [],
      "payable": true,
      "stateMutability": "payable",
      "type": "function"
    },
    {
      "constant": false,
      "inputs": [
        {
          "name": "secret",
          "type": "bytes32"
        },
        {
          "name": "onlyAlice",
          "type": "bytes32"
        }
      ],
      "name": "getTheResult",
      "outputs": [
        {
          "name": "",
          "type": "string"
        }
      ],
      "payable": false,
      "stateMutability": "nonpayable",
      "type": "function"
    },
    {
      "constant": false,
      "inputs": [
        {
          "name": "secret",
          "type": "bytes32"
        }
      ],
      "name": "ResetGame",
      "outputs": [],
      "payable": false,
      "stateMutability": "nonpayable",
      "type": "function"
    },
    {
      "constant": false,
      "inputs": [
        {
          "name": "amount",
          "type": "uint256"
        }
      ],
      "name": "withDraw",
      "outputs": [],
      "payable": true,
      "stateMutability": "payable",
      "type": "function"
    },
    {
      "constant": true,
      "inputs": [],
      "name": "contractBalance",
      "outputs": [
        {
          "name": "",
          "type": "uint256"
        }
      ],
      "payable": false,
      "stateMutability": "view",
      "type": "function"
    },
    {
      "constant": false,
      "inputs": [],
      "name": "emergency",
      "outputs": [],
      "payable": false,
      "stateMutability": "nonpayable",
      "type": "function"
    }
  ],
  "bytecode": "0x60606040526001600455600160055533600360006101000a81548173ffffffffffffffffffffffffffffffffffffffff021916908373ffffffffffffffffffffffffffffffffffffffff16021790555061248d8061005e6000396000f3006060604052600436106100af576000357c0100000000000000000000000000000000000000000000000000000000900463ffffffff16806314174f33146100b457806315dc1ae9146100cc57806320dee7aa146100f357806327e235e31461015057806369faf3a81461019d5780638b7afe2e146102ef5780638da5cb5b14610318578063acb3b4d01461036d578063b8334cb01461041a578063caa6fea414610443578063e5b1504e14610458575b600080fd5b6100ca6004808035906020019091905050610480565b005b34156100d757600080fd5b6100f16004808035600019169060200190919050506105c9565b005b61014e60048080356000191690602001909190803560ff1690602001909190803573ffffffffffffffffffffffffffffffffffffffff1690602001909190803560001916906020019091908035906020019091905050610813565b005b341561015b57600080fd5b610187600480803573ffffffffffffffffffffffffffffffffffffffff16906020019091905050610b5e565b6040518082815260200191505060405180910390f35b34156101a857600080fd5b6101c2600480803560001916906020019091905050610b76565b604051808773ffffffffffffffffffffffffffffffffffffffff1673ffffffffffffffffffffffffffffffffffffffff1681526020018673ffffffffffffffffffffffffffffffffffffffff1673ffffffffffffffffffffffffffffffffffffffff168152602001856000191660001916815260200184600381111561024457fe5b60ff16815260200183151515158152602001806020018281038252838181546001816001161561010002031660029004815260200191508054600181600116156101000203166002900480156102db5780601f106102b0576101008083540402835291602001916102db565b820191906000526020600020905b8154815290600101906020018083116102be57829003601f168201915b505097505050505050505060405180910390f35b34156102fa57600080fd5b610302610c0b565b6040518082815260200191505060405180910390f35b341561032357600080fd5b61032b610c2a565b604051808273ffffffffffffffffffffffffffffffffffffffff1673ffffffffffffffffffffffffffffffffffffffff16815260200191505060405180910390f35b341561037857600080fd5b61039f60048080356000191690602001909190803560001916906020019091905050610c50565b6040518080602001828103825283818151815260200191508051906020019080838360005b838110156103df5780820151818401526020810190506103c4565b50505050905090810190601f16801561040c5780820380516001836020036101000a031916815260200191505b509250505060405180910390f35b341561042557600080fd5b61042d612139565b6040518082815260200191505060405180910390f35b341561044e57600080fd5b61045661213f565b005b61047e60048080356000191690602001909190803560ff169060200190919050506121d6565b005b6000600160003373ffffffffffffffffffffffffffffffffffffffff1673ffffffffffffffffffffffffffffffffffffffff168152602001908152602001600020541115156104ce57600080fd5b80600160003373ffffffffffffffffffffffffffffffffffffffff1673ffffffffffffffffffffffffffffffffffffffff168152602001908152602001600020600082825403925050819055503373ffffffffffffffffffffffffffffffffffffffff166108fc829081150290604051600060405180830381858888f19350505050151561055b57600080fd5b7fdba4cc346ec2ac82420ba630a0a9c908f28c3afa04547772e8ad8c99e5d3d8173382604051808373ffffffffffffffffffffffffffffffffffffffff1673ffffffffffffffffffffffffffffffffffffffff1681526020018281526020019250505060405180910390a150565b60001515600080836000191660001916815260200190815260200160002060030160019054906101000a900460ff16151514151561060657600080fd5b600080826000191660001916815260200190815260200160002060000160009054906101000a900473ffffffffffffffffffffffffffffffffffffffff1673ffffffffffffffffffffffffffffffffffffffff163373ffffffffffffffffffffffffffffffffffffffff1614806106e55750600080826000191660001916815260200190815260200160002060010160009054906101000a900473ffffffffffffffffffffffffffffffffffffffff1673ffffffffffffffffffffffffffffffffffffffff163373ffffffffffffffffffffffffffffffffffffffff16145b15156106f057600080fd5b6001600481905550600160058190555060006002819055506000806000836000191660001916815260200190815260200160002060010160006101000a81548173ffffffffffffffffffffffffffffffffffffffff021916908373ffffffffffffffffffffffffffffffffffffffff1602179055506000600102600080836000191660001916815260200190815260200160002060020181600019169055506000806000836000191660001916815260200190815260200160002060030160006101000a81548160ff021916908360038111156107c957fe5b021790555060206040519081016040528060008152506000808360001916600019168152602001908152602001600020600401908051906020019061080f9291906123a8565b5050565b34600160003373ffffffffffffffffffffffffffffffffffffffff1673ffffffffffffffffffffffffffffffffffffffff168152602001908152602001600020600082825401925050819055503373ffffffffffffffffffffffffffffffffffffffff16600360009054906101000a900473ffffffffffffffffffffffffffffffffffffffff1673ffffffffffffffffffffffffffffffffffffffff161415156108bc57600080fd5b8360038111156108c857fe5b600060038111156108d557fe5b141515156108e257600080fd5b60008373ffffffffffffffffffffffffffffffffffffffff161415151561090857600080fd5b3373ffffffffffffffffffffffffffffffffffffffff168373ffffffffffffffffffffffffffffffffffffffff161415151561094357600080fd5b600060045411151561095457600080fd5b600160003373ffffffffffffffffffffffffffffffffffffffff1673ffffffffffffffffffffffffffffffffffffffff1681526020019081526020016000205481111515156109a257600080fd5b60001515600080876000191660001916815260200190815260200160002060030160019054906101000a900460ff1615151415156109df57600080fd5b80600281905550600060048190555033600080876000191660001916815260200190815260200160002060000160006101000a81548173ffffffffffffffffffffffffffffffffffffffff021916908373ffffffffffffffffffffffffffffffffffffffff1602179055508184604051808360001916600019168152602001826003811115610a6a57fe5b60ff167f01000000000000000000000000000000000000000000000000000000000000000281526001019250505060405180910390206000808760001916600019168152602001908152602001600020600201816000191690555082600080876000191660001916815260200190815260200160002060010160006101000a81548173ffffffffffffffffffffffffffffffffffffffff021916908373ffffffffffffffffffffffffffffffffffffffff1602179055506001600080876000191660001916815260200190815260200160002060030160016101000a81548160ff0219169083151502179055505050505050565b60016020528060005260406000206000915090505481565b60006020528060005260406000206000915090508060000160009054906101000a900473ffffffffffffffffffffffffffffffffffffffff16908060010160009054906101000a900473ffffffffffffffffffffffffffffffffffffffff16908060020154908060030160009054906101000a900460ff16908060030160019054906101000a900460ff169080600401905086565b60003073ffffffffffffffffffffffffffffffffffffffff1631905090565b600360009054906101000a900473ffffffffffffffffffffffffffffffffffffffff1681565b610c58612428565b60011515600080856000191660001916815260200190815260200160002060030160019054906101000a900460ff161515141515610c9557600080fd5b60006001026000808560001916600019168152602001908152602001600020600201546000191614151515610cc957600080fd5b60006003811115610cd657fe5b600080856000191660001916815260200190815260200160002060030160009054906101000a900460ff166003811115610d0c57fe5b14151515610d1957600080fd5b816001604051808360001916600019168152602001826003811115610d3a57fe5b60ff167f01000000000000000000000000000000000000000000000000000000000000000281526001019250505060405180910390206000191660008085600019166000191681526020019081526020016000206002015460001916148015610de3575060016003811115610dab57fe5b600080856000191660001916815260200190815260200160002060030160009054906101000a900460ff166003811115610de157fe5b145b15610e86576040805190810160405280600681526020017f456d70617465000000000000000000000000000000000000000000000000000081525060008085600019166000191681526020019081526020016000206004019080519060200190610e4e9291906123a8565b506000806000856000191660001916815260200190815260200160002060030160016101000a81548160ff0219169083151502179055505b816002604051808360001916600019168152602001826003811115610ea757fe5b60ff167f01000000000000000000000000000000000000000000000000000000000000000281526001019250505060405180910390206000191660008085600019166000191681526020019081526020016000206002015460001916148015610f50575060026003811115610f1857fe5b600080856000191660001916815260200190815260200160002060030160009054906101000a900460ff166003811115610f4e57fe5b145b15610ff3576040805190810160405280600681526020017f456d70617465000000000000000000000000000000000000000000000000000081525060008085600019166000191681526020019081526020016000206004019080519060200190610fbb9291906123a8565b506000806000856000191660001916815260200190815260200160002060030160016101000a81548160ff0219169083151502179055505b81600360405180836000191660001916815260200182600381111561101457fe5b60ff167f010000000000000000000000000000000000000000000000000000000000000002815260010192505050604051809103902060001916600080856000191660001916815260200190815260200160002060020154600019161480156110bc575060038081111561108457fe5b600080856000191660001916815260200190815260200160002060030160009054906101000a900460ff1660038111156110ba57fe5b145b1561115f576040805190810160405280600681526020017f456d706174650000000000000000000000000000000000000000000000000000815250600080856000191660001916815260200190815260200160002060040190805190602001906111279291906123a8565b506000806000856000191660001916815260200190815260200160002060030160016101000a81548160ff0219169083151502179055505b81600160405180836000191660001916815260200182600381111561118057fe5b60ff167f010000000000000000000000000000000000000000000000000000000000000002815260010192505050604051809103902060001916600080856000191660001916815260200190815260200160002060020154600019161480156112295750600260038111156111f157fe5b600080856000191660001916815260200190815260200160002060030160009054906101000a900460ff16600381111561122757fe5b145b156113e4576040805190810160405280600781526020017f426f6247616e6100000000000000000000000000000000000000000000000000815250600080856000191660001916815260200190815260200160002060040190805190602001906112949291906123a8565b5060025460016000806000876000191660001916815260200190815260200160002060010160009054906101000a900473ffffffffffffffffffffffffffffffffffffffff1673ffffffffffffffffffffffffffffffffffffffff1673ffffffffffffffffffffffffffffffffffffffff1681526020019081526020016000206000828254019250508190555060025460016000806000876000191660001916815260200190815260200160002060000160009054906101000a900473ffffffffffffffffffffffffffffffffffffffff1673ffffffffffffffffffffffffffffffffffffffff1673ffffffffffffffffffffffffffffffffffffffff168152602001908152602001600020600082825403925050819055506000806000856000191660001916815260200190815260200160002060030160016101000a81548160ff0219169083151502179055505b81600260405180836000191660001916815260200182600381111561140557fe5b60ff167f010000000000000000000000000000000000000000000000000000000000000002815260010192505050604051809103902060001916600080856000191660001916815260200190815260200160002060020154600019161480156114ad575060038081111561147557fe5b600080856000191660001916815260200190815260200160002060030160009054906101000a900460ff1660038111156114ab57fe5b145b15611668576040805190810160405280600781526020017f426f6247616e6100000000000000000000000000000000000000000000000000815250600080856000191660001916815260200190815260200160002060040190805190602001906115189291906123a8565b5060025460016000806000876000191660001916815260200190815260200160002060010160009054906101000a900473ffffffffffffffffffffffffffffffffffffffff1673ffffffffffffffffffffffffffffffffffffffff1673ffffffffffffffffffffffffffffffffffffffff1681526020019081526020016000206000828254019250508190555060025460016000806000876000191660001916815260200190815260200160002060000160009054906101000a900473ffffffffffffffffffffffffffffffffffffffff1673ffffffffffffffffffffffffffffffffffffffff1673ffffffffffffffffffffffffffffffffffffffff168152602001908152602001600020600082825403925050819055506000806000856000191660001916815260200190815260200160002060030160016101000a81548160ff0219169083151502179055505b81600160405180836000191660001916815260200182600381111561168957fe5b60ff167f0100000000000000000000000000000000000000000000000000000000000000028152600101925050506040518091039020600019166000808560001916600019168152602001908152602001600020600201546000191614801561173157506003808111156116f957fe5b600080856000191660001916815260200190815260200160002060030160009054906101000a900460ff16600381111561172f57fe5b145b156118ec576040805190810160405280600981526020017f416c69636547616e6100000000000000000000000000000000000000000000008152506000808560001916600019168152602001908152602001600020600401908051906020019061179c9291906123a8565b5060025460016000806000876000191660001916815260200190815260200160002060000160009054906101000a900473ffffffffffffffffffffffffffffffffffffffff1673ffffffffffffffffffffffffffffffffffffffff1673ffffffffffffffffffffffffffffffffffffffff1681526020019081526020016000206000828254019250508190555060025460016000806000876000191660001916815260200190815260200160002060010160009054906101000a900473ffffffffffffffffffffffffffffffffffffffff1673ffffffffffffffffffffffffffffffffffffffff1673ffffffffffffffffffffffffffffffffffffffff168152602001908152602001600020600082825403925050819055506000806000856000191660001916815260200190815260200160002060030160016101000a81548160ff0219169083151502179055505b81600360405180836000191660001916815260200182600381111561190d57fe5b60ff167f010000000000000000000000000000000000000000000000000000000000000002815260010192505050604051809103902060001916600080856000191660001916815260200190815260200160002060020154600019161480156119b657506002600381111561197e57fe5b600080856000191660001916815260200190815260200160002060030160009054906101000a900460ff1660038111156119b457fe5b145b15611b71576040805190810160405280600981526020017f416c69636547616e61000000000000000000000000000000000000000000000081525060008085600019166000191681526020019081526020016000206004019080519060200190611a219291906123a8565b5060025460016000806000876000191660001916815260200190815260200160002060000160009054906101000a900473ffffffffffffffffffffffffffffffffffffffff1673ffffffffffffffffffffffffffffffffffffffff1673ffffffffffffffffffffffffffffffffffffffff1681526020019081526020016000206000828254019250508190555060025460016000806000876000191660001916815260200190815260200160002060010160009054906101000a900473ffffffffffffffffffffffffffffffffffffffff1673ffffffffffffffffffffffffffffffffffffffff1673ffffffffffffffffffffffffffffffffffffffff168152602001908152602001600020600082825403925050819055506000806000856000191660001916815260200190815260200160002060030160016101000a81548160ff0219169083151502179055505b816002604051808360001916600019168152602001826003811115611b9257fe5b60ff167f01000000000000000000000000000000000000000000000000000000000000000281526001019250505060405180910390206000191660008085600019166000191681526020019081526020016000206002015460001916148015611c3b575060016003811115611c0357fe5b600080856000191660001916815260200190815260200160002060030160009054906101000a900460ff166003811115611c3957fe5b145b15611df6576040805190810160405280600981526020017f416c69636547616e61000000000000000000000000000000000000000000000081525060008085600019166000191681526020019081526020016000206004019080519060200190611ca69291906123a8565b5060025460016000806000876000191660001916815260200190815260200160002060000160009054906101000a900473ffffffffffffffffffffffffffffffffffffffff1673ffffffffffffffffffffffffffffffffffffffff1673ffffffffffffffffffffffffffffffffffffffff1681526020019081526020016000206000828254019250508190555060025460016000806000876000191660001916815260200190815260200160002060010160009054906101000a900473ffffffffffffffffffffffffffffffffffffffff1673ffffffffffffffffffffffffffffffffffffffff1673ffffffffffffffffffffffffffffffffffffffff168152602001908152602001600020600082825403925050819055506000806000856000191660001916815260200190815260200160002060030160016101000a81548160ff0219169083151502179055505b816003604051808360001916600019168152602001826003811115611e1757fe5b60ff167f01000000000000000000000000000000000000000000000000000000000000000281526001019250505060405180910390206000191660008085600019166000191681526020019081526020016000206002015460001916148015611ec0575060016003811115611e8857fe5b600080856000191660001916815260200190815260200160002060030160009054906101000a900460ff166003811115611ebe57fe5b145b1561207b576040805190810160405280600781526020017f426f6247616e610000000000000000000000000000000000000000000000000081525060008085600019166000191681526020019081526020016000206004019080519060200190611f2b9291906123a8565b5060025460016000806000876000191660001916815260200190815260200160002060010160009054906101000a900473ffffffffffffffffffffffffffffffffffffffff1673ffffffffffffffffffffffffffffffffffffffff1673ffffffffffffffffffffffffffffffffffffffff1681526020019081526020016000206000828254019250508190555060025460016000806000876000191660001916815260200190815260200160002060000160009054906101000a900473ffffffffffffffffffffffffffffffffffffffff1673ffffffffffffffffffffffffffffffffffffffff1673ffffffffffffffffffffffffffffffffffffffff168152602001908152602001600020600082825403925050819055506000806000856000191660001916815260200190815260200160002060030160016101000a81548160ff0219169083151502179055505b60008084600019166000191681526020019081526020016000206004018054600181600116156101000203166002900480601f01602080910402602001604051908101604052809291908181526020018280546001816001161561010002031660029004801561212c5780601f106121015761010080835404028352916020019161212c565b820191906000526020600020905b81548152906001019060200180831161210f57829003601f168201915b5050505050905092915050565b60025481565b3373ffffffffffffffffffffffffffffffffffffffff16600360009054906101000a900473ffffffffffffffffffffffffffffffffffffffff1673ffffffffffffffffffffffffffffffffffffffff1614151561219b57600080fd5b600360009054906101000a900473ffffffffffffffffffffffffffffffffffffffff1673ffffffffffffffffffffffffffffffffffffffff16ff5b34600160003373ffffffffffffffffffffffffffffffffffffffff1673ffffffffffffffffffffffffffffffffffffffff16815260200190815260200160002060008282540192505081905550600160003373ffffffffffffffffffffffffffffffffffffffff1673ffffffffffffffffffffffffffffffffffffffff168152602001908152602001600020546002541115151561227357600080fd5b3373ffffffffffffffffffffffffffffffffffffffff16600080846000191660001916815260200190815260200160002060010160009054906101000a900473ffffffffffffffffffffffffffffffffffffffff1673ffffffffffffffffffffffffffffffffffffffff161415156122ea57600080fd5b60011515600080846000191660001916815260200190815260200160002060030160019054906101000a900460ff16151514151561232757600080fd5b80600381111561233357fe5b6000600381111561234057fe5b1415151561234d57600080fd5b600060055411151561235e57600080fd5b600060058190555080600080846000191660001916815260200190815260200160002060030160006101000a81548160ff0219169083600381111561239f57fe5b02179055505050565b828054600181600116156101000203166002900490600052602060002090601f016020900481019282601f106123e957805160ff1916838001178555612417565b82800160010185558215612417579182015b828111156124165782518255916020019190600101906123fb565b5b509050612424919061243c565b5090565b602060405190810160405280600081525090565b61245e91905b8082111561245a576000816000905550600101612442565b5090565b905600a165627a7a72305820907207a617ced238c0161bbe99ff0c2927a0c0f15b412572e60617967da4bf160029",
  "source": "pragma solidity^0.4.19;\n\ncontract RockPaperScissors{\n    \n    enum answer {Vacio, Piedra, Papel, Tijeras}\n    struct data{\n        address player1;\n        address player2;\n        bytes32 secret_mov1;\n        answer mov2;\n        bool gameStatus;\n        string whoWon;\n    }\n    \n    mapping(bytes32 => data) public playersInfo;\n    mapping(address => uint) public balances;\n    uint public amountToBet;\n    address public owner;\n    uint PlayerOneMovements=1;\n    uint PlayerTwoMovements=1;\n    \n    modifier onlyA(){\t\t\t\n        require(owner==msg.sender);\t\t//Solo Alice puede interactuar.\n        _;\n    }\n    event retirado(address to, uint amount);\n    \n    function RockPaperScissors() payable public{\n        owner=msg.sender;\n    }\n    \n    function startGame(bytes32 secret, answer _mov1, address player2, bytes32 onlyAlice, uint amount) public payable{\n        balances[msg.sender]+=msg.value;\n        require(owner==msg.sender);\n        require(answer.Vacio != _mov1);\n        require(player2!=0x0);\n        require(player2!=msg.sender);\n        require(PlayerOneMovements>0);\n        require(amount<=balances[msg.sender]);\n        require(playersInfo[secret].gameStatus==false);\n        amountToBet=amount;\n        PlayerOneMovements=0;\n        playersInfo[secret].player1=msg.sender;\n        playersInfo[secret].secret_mov1=keccak256(onlyAlice,_mov1);\n        playersInfo[secret].player2=player2;\n        playersInfo[secret].gameStatus=true;\n    }\n    \n    function answerPlayer2(bytes32 secret, answer _mov2) public payable{\n        balances[msg.sender]+=msg.value;\n        require(amountToBet<=balances[msg.sender]);\n        require(playersInfo[secret].player2==msg.sender);\n        require(playersInfo[secret].gameStatus==true);\n        require(answer.Vacio != _mov2);\n        require(PlayerTwoMovements>0);\n        PlayerTwoMovements=0;\n        playersInfo[secret].mov2=_mov2;\n    }\n    \n    function getTheResult(bytes32 secret, bytes32 onlyAlice)public returns(string){\n        require(playersInfo[secret].gameStatus==true);\n        require(playersInfo[secret].secret_mov1!=0x0);\n        require(playersInfo[secret].mov2!=answer.Vacio);\n        \n        if(playersInfo[secret].secret_mov1==keccak256(onlyAlice,answer.Piedra)\n        && playersInfo[secret].mov2==answer.Piedra){\n            playersInfo[secret].whoWon=\"Empate\";\n            playersInfo[secret].gameStatus=false;\n        }\n        if(playersInfo[secret].secret_mov1==keccak256(onlyAlice,answer.Papel)\n        && playersInfo[secret].mov2==answer.Papel){\n            playersInfo[secret].whoWon=\"Empate\";\n            playersInfo[secret].gameStatus=false;\n        }\n        if(playersInfo[secret].secret_mov1==keccak256(onlyAlice,answer.Tijeras)\n        && playersInfo[secret].mov2==answer.Tijeras){\n            playersInfo[secret].whoWon=\"Empate\";\n            playersInfo[secret].gameStatus=false;\n        }\n        if(playersInfo[secret].secret_mov1==keccak256(onlyAlice,answer.Piedra)\n        && playersInfo[secret].mov2==answer.Papel){\n            playersInfo[secret].whoWon=\"BobGana\";\n            balances[playersInfo[secret].player2]+=amountToBet;\n            balances[playersInfo[secret].player1]-=amountToBet;\n            playersInfo[secret].gameStatus=false;\n        }\n        if(playersInfo[secret].secret_mov1==keccak256(onlyAlice,answer.Papel)\n        && playersInfo[secret].mov2==answer.Tijeras){\n            playersInfo[secret].whoWon=\"BobGana\";\n            balances[playersInfo[secret].player2]+=amountToBet;\n            balances[playersInfo[secret].player1]-=amountToBet;\n            playersInfo[secret].gameStatus=false;\n        }\n        \n        if(playersInfo[secret].secret_mov1==keccak256(onlyAlice,answer.Piedra)\n        && playersInfo[secret].mov2==answer.Tijeras){\n            playersInfo[secret].whoWon=\"AliceGana\";\n            balances[playersInfo[secret].player1]+=amountToBet;\n            balances[playersInfo[secret].player2]-=amountToBet;\n            playersInfo[secret].gameStatus=false;\n        }\n        \n        if(playersInfo[secret].secret_mov1==keccak256(onlyAlice,answer.Tijeras)\n        && playersInfo[secret].mov2==answer.Papel){\n            playersInfo[secret].whoWon=\"AliceGana\";\n            balances[playersInfo[secret].player1]+=amountToBet;\n            balances[playersInfo[secret].player2]-=amountToBet;\n            playersInfo[secret].gameStatus=false;\n        }\n        \n        if(playersInfo[secret].secret_mov1==keccak256(onlyAlice,answer.Papel)\n        && playersInfo[secret].mov2==answer.Piedra){\n            playersInfo[secret].whoWon=\"AliceGana\";\n            balances[playersInfo[secret].player1]+=amountToBet;\n            balances[playersInfo[secret].player2]-=amountToBet;\n            playersInfo[secret].gameStatus=false;\n        }\n        \n        if(playersInfo[secret].secret_mov1==keccak256(onlyAlice,answer.Tijeras)\n        && playersInfo[secret].mov2==answer.Piedra){\n            playersInfo[secret].whoWon=\"BobGana\";\n            balances[playersInfo[secret].player2]+=amountToBet;\n            balances[playersInfo[secret].player1]-=amountToBet;\n            playersInfo[secret].gameStatus=false;\n        }\n        return(playersInfo[secret].whoWon);\n    }\n    \n    function ResetGame(bytes32 secret) public{\n        require(playersInfo[secret].gameStatus==false);\n        require(msg.sender==playersInfo[secret].player1 || msg.sender == playersInfo[secret].player2);\n        PlayerOneMovements=1;\n        PlayerTwoMovements=1;\n        amountToBet=0;\n        playersInfo[secret].player2=0x0;\n        playersInfo[secret].secret_mov1=0x0;\n        playersInfo[secret].mov2=answer.Vacio;\n        playersInfo[secret].whoWon=\"\";\n        \n    }\n    \n    function withDraw(uint amount)public payable{\n        require(balances[msg.sender]>0);\n        balances[msg.sender]-=amount;\n        msg.sender.transfer(amount);\n        retirado(msg.sender,amount);\n    }\n    \n    function contractBalance() public view returns(uint){\n        return address(this).balance;\n    }\n    \n    function emergency()public onlyA{  //en caso de emergencia, devuelve los fondos y destruye el contrato.\n        selfdestruct(owner);\n    }\n}",
  "sourcePath": "/home/mauricio/DAPPS/rockpaperscissors/contracts/RockPaperScissors.sol",
  "compiler": {
    "name": "solc",
    "version": "0.4.19+commit.c4cbbb05.Emscripten.clang"
  },
  "schemaVersion": "1.0.1",
  "updatedAt": "2018-09-21T00:17:52.302Z"
}